:100000000C9434000C9449000C9449000C94490061
:100010000C9449000C9449000C9449000C9449003C
:100020000C9449000C9449000C9449000C9449002C
:100030000C9449000C9449000C9449000C9449001C
:100040000C9449000C9449000C9475000C944900E0
:100050000C9449000C9449000C9449000C944900FC
:100060000C9449000C94490011241FBECFEFD8E036
:10007000DEBFCDBF11E0A0E0B1E0E2EFF1E002C0F1
:1000800005900D92AA32B107D9F70E949F000C94F7
:10009000F7000C9400009093C5008093C40088E999
:1000A0008093C1008EE08093C2007894089590916F
:1000B000C00095FFFCCF8093C6000895CF93DF93D7
:1000C000EC018991882319F00E945700FACFDF9143
:1000D000CF910895882341F0E7EBFBE03197F1F7EA
:1000E00000C000008150F6CF08951F920F920FB606
:1000F0000F9211242F933F934F935F936F937F93AE
:100100008F939F93AF93BF93EF93FF938091C6001C
:10011000809300018AE191E00E945E00FF91EF91DF
:10012000BF91AF919F918F917F916F915F914F910F
:100130003F912F910F900FBE0F901F9018958DE457
:1001400090E00E944B0080EF8AB98FE384B901E010
:1001500010E0C4E0D0E02BB1C8010C2E01C0880F24
:100160000A94EAF7822B8BB981E091E00E945E004D
:100170008C2F805D0E94570086E091E00E945E0017
:10018000809100010E946A002196C830D10519F7BC
:10019000C0E0D0E025B1C8010C2E01C0880F0A9440
:1001A000EAF7822B85B981E091E00E945E008C2FF6
:1001B000805D0E94570086E091E00E945E00809181
:1001C00000010E946A002196C730D10519F78FEF10
:1001D0009EE924E2815090402040E1F700C00000F9
:1001E0008DE091E00E945E001BB815B8B2CFF89484
:0201F000FFCF3F
:1001F200644C454420003A204F4E200A00414C4CAA
:10020200204C4544204F46460A0044656C617920E3
:0A021200757064617465640A0000F1
:00000001FF
