:100000000C9434000C943E000C943E000C943E0082
:100010000C943E000C943E000C943E000C943E0068
:100020000C943E000C943E000C943E000C943E0058
:100030000C943E000C943E000C943E000C943E0048
:100040000C946B000C943E000C943E000C943E000B
:100050000C943E000C943E000C943E000C943E0028
:100060000C943E000C943E0011241FBECFEFD8E04C
:10007000DEBFCDBF0E9490000C949C000C94000049
:100080009093C5008093C40088E98093C1008EE0FE
:100090008093C200672B09F0789408959091C00076
:1000A00095FFFCCF8093C6000895CF93DF93EC01BA
:1000B0008991882319F00E944E00FACFDF91CF91E9
:1000C0000895EEE6F0E0808181608083789485B5C4
:1000D000856085BD08951F920F920FB60F9211246F
:1000E0002F933F934F935F936F937F938F939F9340
:1000F000AF93BF93EF93FF9389E40E944E00FF916B
:10010000EF91BF91AF919F918F917F916F915F918F
:100110004F913F912F910F900FBE0F901F90189508
:100120000E94610060E070E08DE490E00E94400079
:0C0130008DE40E944E00FCCFF894FFCF3D
:00000001FF
